:020000040800F2
:10000000000002200B09000805090008F507000898
:10001000FB070008010800080509000800000000AF
:1000200000000000000000000000000005090008BA
:10003000050900080000000029070008C90700089A
:100040000509000805090008050900080509000858
:100050000509000805090008050900080509000848
:100060000509000805090008050900080509000838
:100070000509000805090008050900080509000828
:100080000509000805090008050900080509000818
:100090000509000805090008050900080509000808
:1000A00005090008050900080509000805090008F8
:1000B00005090008050900080509000805090008E8
:1000C00005090008050900080509000805090008D8
:1000D00005090008050900080509000805090008C8
:1000E00005090008050900080509000805090008B8
:1000F00005090008050900080509000805090008A8
:100100000509000805090008050900080509000897
:100110000509000805090008050900080509000887
:100120000509000805090008050900080509000877
:100130000509000805090008050900080509000867
:100140000509000805090008050900080509000857
:100150000509000805090008050900080509000847
:100160000509000805090008050900080509000837
:100170000509000805090008050900080509000827
:10018000050900080509000810402DE928409FE5F1
:100190000030D4E5000053E30500001A1C309FE551
:1001A000000053E318009F150000A0110130A0E3E8
:1001B0000030C4E51040BDE81EFF2FE178000020AC
:1001C000000000005C0D00081C309FE5000053E3B8
:1001D0001EFF2F0110402DE910109FE510009FE534
:1001E0000000A0E11040BDE81EFF2FE1000000006C
:1001F0007C0000205C0D000800400FE10F0014E3BC
:100200001C00000A0D30A0E1D110A0E301F021E1B3
:1002100003D0A0E101AA4DE20A30A0E1D710A0E38B
:1002200001F021E103D0A0E1013A43E2DB10A0E3B9
:1002300001F021E103D0A0E1013A43E2D210A0E3B2
:1002400001F021E103D0A0E1023A43E2D310A0E3A0
:1002500001F021E103D0A0E1023943E2FF30C3E322
:10026000FF3CC3E3DF10A0E301F021E103D0A0E1F4
:10027000C04084E304F021E101A843E21EFF2FE126
:1002800094309FE5000053E380309F0503D0A0E148
:10029000D8FFFFEB0010B0E301B0A0E10170A0E1D6
:1002A00078009FE578209FE5002052E0A40200EB53
:1002B0005C309FE5000053E30100000A0FE0A0E17D
:1002C00003F0A0E14C309FE5000053E30100000A79
:1002D0000FE0A0E103F0A0E10000B0E30010B0E304
:1002E0000040B0E10150B0E138009FE5000050E36C
:1002F0000100000A30009FE50000A0E1700200EB61
:100300000400B0E10510B0E1080000FA5C0200EB67
:1003100000000800000000000000000000000000D5
:1003200078000020F0000020000000000000000025
:1003300080B500AF00F022F9074800F08DF800F01A
:1003400090F800F075FA4FF47A7000F051F800F070
:100350009BF900F006F8FEE700EC012080B400AF46
:10036000FEE780B500AF0C2000F09CFA044800F0D6
:100370004BFA0C2000F0AEFA014800F045FAF2E723
:10038000D012130080B500AF0D2000F08BFA0548A5
:1003900000F03AFA0D2000F09DFA024800F034FA1D
:1003A000F2E700BF6889090080B500AF0F2000F0B8
:1003B00079FA054800F028FA0F2000F08BFA02487D
:1003C00000F022FAF2E700BFB4C4040080B500AF29
:1003D0000E2000F067FA054800F016FA0E2000F033
:1003E00079FA024800F010FAF2E700BF5A62020000
:1003F00080B487B000AF7860144B7B61144B3B61D5
:10040000144A7B68B2FBF3F3013BFB607B6900227B
:100410001A607B691A68FB681A437B691A603B693A
:100420001B6843F002023B691A603B691B6843F09A
:1004300004023B691A603B691B6843F001023B6997
:100440001A6000BF1C37BD4680BC704714E000E056
:1004500010E000E00024F400034683F308887047AE
:1004600000BF80B485B000AF394B00221A72384B00
:1004700000221A76364B002283F82820344B0022C3
:1004800083F83820324B002283F84820304B314A21
:100490001A602F4B304A1A612D4B304A1A622C4B8E
:1004A0002F4A1A632A4B2F4A1A64294B2E4ADA60C4
:1004B000274B2E4ADA61264B2D4ADA62244B2D4A0D
:1004C000DA63234B2C4ADA640023BB6037E0204A0E
:1004D000BB681B0113441B68FB60FB68043BFB60AB
:1004E000FB684FF080721A60FB68043BFB60184A9F
:1004F000BB681B0113440C331B681A46FB681A6067
:10050000FB68043BFB60FB686FF002021A6000238B
:100510007B6008E0FB68043BFB60FB6800221A601C
:100520007B6801337B607B680C2BF3DDFA6808493C
:10053000BB681B010B441A60BB680133BB60BB681E
:10054000042BC4DD00BF00BF1437BD4680BC70471C
:100550009800002000F001200000022000FC012093
:1005600000F8012000F401205D0300086303000887
:1005700085030008A9030008CD03000880B483B0F8
:1005800000AF0C4B7B607B681B6843F480327B6858
:100590001A607B681B6843F400327B681A607B68D2
:1005A0001B6843F480227B681A6000BF0C37BD468D
:1005B00080BC704724ED00E080B400AF044B1B7892
:1005C000044A1B0113441B681846BD4680BC704793
:1005D000040000209800002080B483B000AF786051
:1005E000054B1B78054A1B0113447A681A6000BF4B
:1005F0000C37BD4680BC70470400002098000020E6
:1006000080B483B000AFFF237B6000233B6024E015
:100610001A4B1B780133DAB2184B1A70174B1A7841
:10062000174BA3FB021399080B469B000B44D31AEC
:10063000DAB2124B1A70114B1B78124A1B01134489
:1006400008331B787B607B68002B03D10B4B1B7836
:10065000002B06D13B6801333B603B68042BD7DDA0
:1006600000E000BF7B68002B02D0044B00221A7010
:1006700000BF0C37BD4680BC704700BF040000209F
:10068000CDCCCCCC9800002000B5FFF795FF80F3CF
:1006900009885DF804EB4FF0020080F3148870477E
:1006A00000BF80B483B000AF064B7B607B681B68E3
:1006B00043F080527B681A6000BF0C37BD4680BC97
:1006C000704700BF04ED00E080B582B000AF7860F5
:1006D0004FF0010080F31088104B1B78002B15D0D1
:1006E0000F4B1A680D4B1B7818467B681A440D494E
:1006F00003010B4404331A60084B1B78094A1B01A1
:1007000013440833FF221A70FFF7CBFF4FF00000AD
:1007100080F3108800BF0837BD4680BD040000206C
:100720009400002098000020EFF3098020E9F00FEA
:1007300000B5FFF751FFFFF763FFFFF73DFFB0E89C
:10074000F00F80F309885DF804EB704700BF80B4B8
:1007500000AF044B1B680133024A136000BFBD4663
:1007600080BC70479400002080B483B000AF0123A8
:100770007B601BE0124A7B681B01134408331B7823
:10078000002B10D00E4A7B681B01134404331A68F7
:100790000C4B1B689A4206D1094A7B681B01134423
:1007A000083300221A707B6801337B607B68042B5E
:1007B000E0DD00BF00BF0C37BD4680BC704700BF06
:1007C000980000209400002080B582B000AF084B54
:1007D0007B60FFF7BCFFFFF7C7FF7B681B6843F038
:1007E00080527B681A6000BF0837BD4680BD00BFDD
:1007F00004ED00E080B400AFFEE780B400AFFEE798
:1008000080B400AFFEE700BF80B485B000AF786071
:100810000023FB6002E0FB680133FB60FA687B6841
:100820009A42F8D300BF00BF1437BD4680BC704762
:1008300080B582B000AF194B7B60194B3B607B6881
:100840001B6843F008027B681A603B681B6843F032
:1008500080723B681A603B681B6843F080623B68AB
:100860001A603B681B6843F080523B681A603B6823
:100870001B6843F080423B681A600C2000F02AF8A5
:100880000D2000F027F80E2000F024F80F2000F0D3
:1008900021F800BF0837BD4680BD00BF3038024098
:1008A000000C024080B485B000AF0346FB71084BDA
:1008B000FB60FB681B68FA79012101FA02F21A4316
:1008C000FB681A6000BF1437BD4680BC704700BF8C
:1008D000140C024080B485B000AF0346FB71084B96
:1008E000FB60FB681B68FA79012101FA02F2D2432E
:1008F0001A40FB681A6000BF1437BD4680BC7047C1
:10090000140C024080B400AFFEE780B586B000AFA3
:100910001B4A1C4BD31A7B601A4B7B611A4B3B6101
:100920000023FB600AE03A69531C3B617B69591C58
:10093000796112781A70FB680133FB60FA687B6892
:100940009A42F0D3114A124BD31A9B107B60104B82
:100950001B687B610023BB6007E07B695A1C7A61DE
:1009600000221A70BB680133BB60BA687B689A4288
:10097000F3D3FFF7DDFC00BF1837BD4680BD00BFD5
:100980000C00002000000020440C0008F0000020B3
:100990007800002080B400AF00BFBD4680BC704727
:1009A00080B400AF01231846BD4680BC704780B5B7
:1009B00082B000AF7860396000F05CF9034616221F
:1009C0001A604FF0FF3318460837BD4680BD80B52A
:1009D00082B000AF78604FF0FF317868FFF7E7FF33
:1009E000FEE780B586B000AFF860B9607A6000239A
:1009F0007B610AE0AFF300800146BB685A1CBA6015
:100A0000CAB21A707B6901337B617A697B689A424A
:100A1000F0DB7B6818461837BD4680BD80B586B0D0
:100A200000AFF860B9607A6000237B6109E0BB68C1
:100A30005A1CBA601B781846AFF300807B690133FB
:100A40007B617A697B689A42F1DB7B6818461837CC
:100A5000BD4680BD80B483B000AF78604FF0FF33F7
:100A600018460C37BD4680BC704780B483B000AFD9
:100A7000786039603B684FF400525A600023184692
:100A80000C37BD4680BC704780B483B000AF78603F
:100A9000012318460C37BD4680BC704780B485B032
:100AA00000AFF860B9607A60002318461437BD467D
:100AB00080BC70470EB480B482B000AF78604FF055
:100AC000FF3318460837BD4680BC03B0704780B579
:100AD00082B000AF786000F0CDF803460A221A60B9
:100AE0004FF0FF3318460837BD4680BD80B582B051
:100AF00000AF786000F0BEF8034602221A604FF0A3
:100B0000FF3318460837BD4680BD80B483B000AFC0
:100B100078604FF0FF3318460C37BD4680BC7047F5
:100B200080B483B000AF786039603B684FF4005206
:100B30005A60002318460C37BD4680BC704780B50C
:100B400082B000AF7860396000F094F803461F224D
:100B50001A604FF0FF3318460837BD4680BD80B598
:100B600000AF00F087F803460B221A604FF0FF3306
:100B7000184680BD80B584B000AFF860B9607A6077
:100B800000F078F803460C221A604FF0FF33184645
:100B90001037BD4680BD80B584B000AF7860124B81
:100BA0001B68002B02D1104B104A1A600E4B1B68B9
:100BB000FB600D4B1A687B6813446A46934207D961
:100BC00000F058F803460C221A604FF0FF3306E09D
:100BD000054B1A687B681344034A1360FB68184688
:100BE0001037BD4680BD00BFEC000020F0000020A3
:100BF0003B3E0B3E103E253E333E033E063E143E3A
:100C00000E3E0D3E243E123E273E023E183E093E59
:100C10000A3E000064000000640000006400000060
:100C20003B3E0B3E103E253E333E033E063E143E09
:100C30000E3E0D3E243E123E273E023E183E093E29
:040C40000A3E000068
:100C44000DC0A0E1F8DF2DE904B04CE228D04BE25E
:080C5400F06F9DE81EFF2FE187
:100C5C000DC0A0E1F8DF2DE904B04CE228D04BE246
:080C6C00F06F9DE81EFF2FE16F
:100C740004309FE5000093E51EFF2FE114000020DF
:100C840030309FE5000053E310402DE90040A0E11F
:100C94000010A0130000A0111C309FE5000093E594
:100CA400283090E5000053E30FE0A01113FF2F114B
:100CB4000400A0E143FFFFFB00000000680D0008F2
:100CC40070402DE90060A0E360509FE560409FE51F
:100CD400054044E04441A0E1040056E10900001A43
:100CE400D6FFFFEB0060A0E348509FE548409FE536
:100CF400054044E04441A0E1040056E10600001A26
:100D04007040BDE81EFF2FE1043095E40FE0A0E140
:100D140013FF2FE1016086E2EEFFFFEA043095E461
:100D24000FE0A0E113FF2FE1016086E2F1FFFFEA8B
:100D340000000000000000000000000000000000AF
:100D44000030A0E1022080E0020053E11EFF2F01E9
:080D54000110C3E4FBFFFFEAFC
:040D5C000000000093
:080D600098F4FF7F0100000080
:040D6800180000204F
:0C0D6C000000000001000000E800002072
:040D7800C8010008A6
:040D7C0088010008E2
:040D80001800002037
:100D8400000000000000000000000000000000005F
:100D9400000000000000000000000000000000004F
:100DA400000000000000000000000000000000003F
:100DB400000000000000000000000000000000002F
:100DC400000000000000000000000000000000001F
:100DD400000000000000000000000000000000000F
:040000050800090BDB
:00000001FF
